:020000040000FA
:100000000C9463000C94C4020C949D020C948B001D
:100010000C9452030C94EB020C948B000C948B0008
:100020000C948B000C948B000C948B000C948B0024
:100030000C948B000C948B000C948B000C948B0014
:100040000C9453020C948B000C948B000C948B003A
:100050000C948B000C948B000C948B000C948B00F4
:100060000C948B000C948B0000000008000201002F
:100070000003040700000000000000000000000072
:1000800023002600290000000000250028002B0086
:1000900000000000240027002A00040404040404D3
:1000A0000404020202020202030303030303010227
:1000B00004081020408001020408102001020408F6
:1000C00010204A14F41411241FBECFEFD8E0DEBF75
:1000D000CDBF11E0A0E0B1E0E8E4F0E302C005909C
:1000E0000D92A634B107D9F722E0A6E4B1E001C031
:1000F0001D92AF34B207E1F710E0C2E6D0E004C0D1
:100100002197FE010E94FD17C136D107C9F70E9451
:10011000AB030C9417180C940000CF93DF9390E07E
:10012000FC01E255FF4F249186569F4FFC018491BC
:100130008823C1F090E0880F991FFC01E057FF4F22
:10014000C591D491FC01EA57FF4FA591B4919FB797
:10015000F8943881822F809583238883EC91E22B59
:10016000EC939FBFDF91CF91089581E0809375015B
:100170000895089590E0FC01E859FF4F2491FC0197
:10018000E255FF4F3491FC01E656FF4FE491EE2318
:10019000C9F0222339F0233001F1A8F4213019F1FC
:1001A000223029F1F0E0EE0FFF1FEA57FF4FA59133
:1001B000B4918FB7F894EC91611126C030953E232D
:1001C0003C938FBF08952730A9F02830C9F0243020
:1001D00049F7809180008F7D03C0809180008F77E8
:1001E00080938000DFCF84B58F7784BDDBCF84B56B
:1001F0008F7DFBCF8091B0008F778093B000D2CFFE
:100200008091B0008F7DF9CF3E2BDACF3FB7F894C5
:1002100080916B0190916C01A0916D01B0916E0184
:1002200026B5A89B05C02F3F19F00196A11DB11D51
:100230003FBFBA2FA92F982F8827BC01CD01620F8D
:10024000711D811D911D42E0660F771F881F991F48
:100250004A95D1F708950F931F9381E0809376011B
:100260000E9406010091460110914701209148012A
:1002700030914901601B710B820B930B60930F024D
:100280007093100280931102909312020E94060153
:100290006093460170934701809348019093490110
:1002A0001F910F9108958F929F92AF92BF92CF921C
:1002B000DF92EF92FF924B015C010E9406016B01FD
:1002C0007C010E9406016C197D098E099F09683E18
:1002D000734081059105A8F321E0821A9108A108D5
:1002E000B10888EEC80E83E0D81EE11CF11C811411
:1002F0009104A104B10429F7FF90EF90DF90CF9013
:10030000BF90AF909F908F9008952FB7F894609111
:100310006701709168018091690190916A012FBF16
:1003200008950895DC011496ED91FC911597908144
:1003300011968C918095892380830895FC01611129
:1003400002C00C949201A481B5819C918181892B7A
:100350008C930895DC0170E0FB01E255FF4FE491BE
:100360001196EC93119766567F4FFB0124912C93C5
:1003700030E0220F331FF901E057FF4F8591949130
:1003800013969C938E931297F901EA57FF4F85912C
:10039000949115969C938E9314970895DC01ED919A
:1003A000FD918081ED91FD919081ED91FD916C9198
:1003B00063708E2309F064609F2309F06860EBEEA0
:1003C000F1E0E60FF11D659565956D936D917D9159
:1003D0008D919D91099423C01AC012C016C010C0FF
:1003E0001EC009C014C013C006C019C009C00DC08A
:1003F00007C00DC014C062507040804090400BC0D8
:10040000615070408040904006C06E5F01C06F5FD9
:100410007F4F8F4F9F4F9E938E937E936E93089541
:1004200080914A0190914B010C94CE0180914C0136
:1004300090914D010C94CE01809165018230E8F4D9
:10044000F8948AE591E00E94CE016091610170917B
:1004500062018091630190916401789422E030E020
:1004600040E050E00E94EA1520939E0130939F01E6
:100470004093A0015093A1010895F894E6CFFC01A8
:10048000A281B3818C919181909598239C93A481B2
:10049000B5819C918181809589238C9308950C94DA
:1004A000DC150C94D4151F920F920FB60F921124E5
:1004B0002F933F938F939F93AF93BF938091670147
:1004C00090916801A0916901B0916A013091660133
:1004D00023E0230F2D3758F50196A11DB11D209360
:1004E00066018093670190936801A0936901B093BE
:1004F0006A0180916B0190916C01A0916D01B091A6
:100500006E010196A11DB11D80936B0190936C014A
:10051000A0936D01B0936E01BF91AF919F918F91A8
:100520003F912F910F900FBE0F901F90189526E8C6
:10053000230F0296A11DB11DD2CF1F920F920FB6AD
:100540000F9211242F933F934F935F936F937F9359
:100550008F939F93AF93BF93EF93FF93E0911A0113
:10056000F0911B010995FF91EF91BF91AF919F9180
:100570008F917F916F915F914F913F912F910F904C
:100580000FBE0F901F9018951F920F920FB60F92EB
:1005900011242F933F934F935F936F937F938F9388
:1005A0009F93AF93BF93EF93FF93E0911801F09166
:1005B00019010995FF91EF91BF91AF919F918F9193
:1005C0007F916F915F914F913F912F910F900FBE4F
:1005D0000F901F9018951F920F920FB60F92112433
:1005E0002F933F934F935F936F937F938F939F933B
:1005F000AF93BF93CF93EF93FF9389B1C0917101F4
:1006000090917401C923982F9095C923809371010B
:10061000C4FF05C0E0910A01F0910B010995C5FFE7
:1006200005C0E0910C01F0910D010995C6FF05C0D0
:10063000E0910E01F0910F010995C7FF05C0E0910F
:100640001001F09111010995C0FF05C0E091120160
:10065000F09113010995C1FF05C0E0911C01F091D3
:100660001D010995C2FF05C0E0911401F09115012B
:100670000995C3FF05C0E0911601F0911701099596
:10068000FF91EF91CF91BF91AF919F918F917F910A
:100690006F915F914F913F912F910F900FBE0F90EF
:1006A0001F9018951F920F920FB60F9211242F933F
:1006B0003F934F935F936F937F938F939F93AF93EA
:1006C000BF93CF93EF93FF9386B1C0917001909148
:1006D0007301C923982F9095C92380937001C0FF9F
:1006E00005C0E0911E01F0911F010995C1FF05C0F1
:1006F000E0910001F09101010995C2FF05C0E09170
:100700000201F09103010995C3FF05C0E0910401C6
:10071000F09105010995C4FF05C0E0910601F09133
:1007200007010995C5FF05C0E0910801F091090195
:100730000995FF91EF91CF91BF91AF919F918F91CB
:100740007F916F915F914F913F912F910F900FBECD
:100750000F901F901895CF93DF9300D000D01F9279
:10076000CDB7DEB7789484B5826084BD84B58160EE
:1007700084BD85B5826085BD85B5816085BD80916C
:100780006E00816080936E001092810080918100E4
:1007900082608093810080918100816080938100DC
:1007A000809180008160809380008091B10084609E
:1007B0008093B1008091B00081608093B0008091FF
:1007C0007A00846080937A0080917A0082608093BE
:1007D0007A0080917A00816080937A0080917A001B
:1007E000806880937A001092C10085EB90E090932E
:1007F0001F0180931E0180917301816080937301BA
:1008000086B18093700180916C00816080936C0050
:10081000809168008260809368008BE291E0909301
:100820001D0180931C01809174018260809374018A
:1008300089B18093710180916D00826080936D0019
:10084000809168008460809368008CE192E09093CE
:10085000190180931801809169008C7F81608093D9
:100860006900E89A86E490E00E94510291E08111CB
:1008700001C090E090934E028AE090E00E94510205
:1008800091E0811101C090E090934C0284E190E0EE
:100890000E94510291E0811101C090E090931B02EF
:1008A00088E290E00E94510290E0909302028093CF
:1008B00001028EE190E00E94510291E0811101C09D
:1008C00090E09093000282E390E00E945102282F72
:1008D00030E050E040E02093030230930402409364
:1008E00005025093060260E077E883E993E00E94F6
:1008F0001C1620931702309318024093190250934C
:100900001A0205E311E01A830983A981BA818C9147
:100910001296BA83A98361E00E94BA00E981FA8144
:10092000E554F14091F76CE271E080E090E00E94C4
:10093000530145E351E05A834983A981BA818C91DF
:100940001296BA83A98360E00E94BA0068E270E060
:1009500080E090E00E945301E981FA81E554F14082
:1009600061F7D8018C910E5F1F4F61E00E94BA00C1
:1009700068E270E080E090E00E94530149805A8074
:100980004016510671F7F4E0EF2EF12C1A8219820D
:10099000EDE2CE2EE1E0DE2E10E000E0D6018C91FB
:1009A000B2E0CB0ED11C49805A8061E0401651065E
:1009B00009F060E00E94BA000F5F1F4F043011057C
:1009C00069F768E270E080E090E00E9453010981DD
:1009D0001A810F5F1F4F1A83098304301105C1F676
:1009E00011E0E11AF10891F661E081E10E94BA009C
:1009F00060E083E10E94BA0074E6872E912CA12C5E
:100A0000B12C62ED262E312C80917601882309F4D9
:100A100058C01092200100914A0210914B02C090E0
:100A20004402D0904502A0913E02B0913F02E09175
:100A30003802F09139026091320270913302409194
:100A40002C0250912D022091260230912702809194
:100A5000200290912102F0904C02FF2011F40C949E
:100A600028130F5F1F4F10934B0200934A020FEFA2
:100A7000C01AD00AD0924502C09244021196B09397
:100A80003F02A0933E023196F0933902E093380280
:100A90006F5F7F4F70933302609332024F5F5F4FFF
:100AA00050932D0240932C022F5F3F4F309327022B
:100AB00020932602019690932102809320021092A7
:100AC000760180917501882311F110924B021092EA
:100AD0004A02109245021092440210923F02109274
:100AE0003E02109239021092380210923302109294
:100AF000320210922D0210922C02109227021092B4
:100B00002602109221021092200210927501E091AB
:100B10008E01F0E0EE0FFF1FE458FF4FA591B49156
:100B20004C9180918F01482381E009F080E080930F
:100B300099018091010290910202049741F44423AB
:100B400031F023E030E030930202209301028091E3
:100B50000102909102029C01255031092230310599
:100B600008F044C0442309F441C0059709F07EC150
:100B700081E080934C0210924E0260914C028AE018
:100B800090E00E944F0261E089EF91E00E949E0197
:100B900061E082EF91E00E949E0161E08BEE91E0C6
:100BA0000E949E0161E084EE91E00E949E0161E05E
:100BB0008DED91E00E949E0161E086ED91E00E9442
:100BC0009E0161E08FEC91E00E949E0161E088EC63
:100BD00091E00E949E011092000260E08EE190E0A0
:100BE0000E944F02109202021092010280910102B3
:100BF000909102029C012750310922303105E8F51D
:100C000020919901211139C0079709F032C1109242
:100C10001B0210924E0260911B0284E190E00E9440
:100C20004F0261E089EF91E00E949E0161E082EF56
:100C300091E00E949E0161E08BEE91E00E949E0196
:100C400061E084EE91E00E949E0161E08DED91E013
:100C50000E949E0161E086ED91E00E949E0161E0AC
:100C60008FEC91E00E949E0161E088EC91E00E948F
:100C70009E01109202021092010280910102909155
:100C800002020997D1F580919901811136C0109225
:100C90004E0281E08093000261E08EE190E00E94CC
:100CA0004F0261E089EF91E00E949E0161E082EFD6
:100CB00091E00E949E0161E08BEE91E00E949E0116
:100CC00061E084EE91E00E949E0161E08DED91E093
:100CD0000E949E0161E086ED91E00E949E0161E02C
:100CE0008FEC91E00E949E0161E088EC91E00E940F
:100CF0009E011092020210920102809194018823B9
:100D000081F08091990181110CC00E94850160934E
:100D10008A0170938B0180938C0190938D011092C6
:100D200094010E94850100918A0110918B0120910C
:100D30008C0130918D01601B710B820B930B693C10
:100D400071058105910508F432C1809194018111EA
:100D50002EC180914E0281112AC16090990180912B
:100D600089018615A1F17090830180919E01909177
:100D70009F01A091A001B091A10180939A0190934D
:100D80009B01A0939C01B0939D01C0909501D090D0
:100D90009601E0909701F0909801662009F46DC0EB
:100DA0000E9485016C197D098E099F0963337105C5
:100DB0008105910550F00E94850160939501709323
:100DC0009601809397019093980160928901D09049
:100DD000830180918201D81609F4ABC0D11083C081
:100DE0000E94060160937E0170937F0180938001D1
:100DF0009093810180917A0190917B01A0917C0177
:100E0000B0917D0140917E0150917F016091800100
:100E100070918101481759076A077B0708F06EC077
:100E20002C013D01441A550A660A770AA301920172
:100E3000293803E130074105510508F46CC02093BF
:100E40001702309318024093190250931A0260E07F
:100E500077E883E993E00E941C1620930302309305
:100E60000402409305025093060255C010924C02B2
:100E700082CE81E080931B02CCCE0E9485016C194A
:100E80007D098E099F096A3F71058105910508F06A
:100E90009CCF80918801811123C00E94850100911F
:100EA0008401109185012091860130918701601B9A
:100EB000710B820B930B633371058105910508F467
:100EC00084CF81E07826709283010E94850160932F
:100ED000840170938501809386019093870175CF7B
:100EE0001092880172CF0E94060160937A0170937C
:100EF0007B0180937C0190937D017CCF9A01AB01B3
:100F0000281B390B4A0B5B0B293813E131074105CC
:100F1000510508F094CF809101029091020201974F
:100F20009093C3018093C20181E080932001D0920D
:100F30008201809199018823D1F10E94850100915D
:100F40009501109196012091970130919801601BB5
:100F5000710B820B930B6D3D75408105910538F146
:100F600081E0809379018093880110924B02109266
:100F70004A02109245021092440210923F021092CF
:100F80003E021092390210923802109233021092EF
:100F9000320210922D0210922C021092270210920F
:100FA0002602109221021092200280934E0280911C
:100FB0002001882339F1609103027091040280912D
:100FC0000502909106020091770110917801012E9F
:100FD000000C220B330B061717072807390791F06F
:100FE0006F3F71058105910509F020F482E390E0DF
:100FF0000E944F0280910302909104029093780125
:10100000809377011091990180914E02882309F411
:101010003FC0809189011817C9F180919E0190917C
:101020009F01A091A001B091A10180939A0190939A
:101030009B01A0939C01B0939D0180917901811146
:101040000C9454130E94850160939501709396014E
:1010500080939701909398012091030230910402AC
:10106000409105025091060260E077E883E993E041
:101070000E941C1620931702309318024093190205
:1010800050931A021092940110924E02109389010B
:1010900080918901811789F011110BC060910102C3
:1010A000709102026430710524F488E290E00E949D
:1010B0004F028091990180938901C0909E01D09048
:1010C0009F01E090A001F090A10180919A01909180
:1010D0009B01A0919C01B0919D01C816D906EA061A
:1010E000FB0609F414C110919901209120012223DB
:1010F00009F4A4C0111189C08C159D05AE05BF056A
:10110000CCF56091030270910402809105029091E8
:101110000602653F31E073078105910508F035C18E
:101120006F5F7F4F8F4F9F4F609303027093040256
:1011300080930502909306022091030230910402ED
:10114000409105025091060260E077E883E993E060
:101150000E941C1620931702309318024093190224
:1011600050931A02C0929A01D0929B01E0929C0186
:10117000F0929D0180919A0190919B01A0919C0118
:10118000B0919D01C816D906EA06FB06F4F56091F8
:101190000302709104028091050290910602623070
:1011A00071058105910598F0653F41E0740781055F
:1011B000910508F0F5C061507109810991096093AA
:1011C000030270930402809305029093060220911B
:1011D000030230910402409105025091060260E042
:1011E00077E883E993E00E941C162093170230935E
:1011F00018024093190250931A02C0929A01D09299
:101200009B01E0929C01F0929D01809103029091DC
:101210000402A0910502B091060289389D40A140C8
:10122000B10560F088E89DE0A1E0B0E080930302A2
:1012300090930402A0930502B0930602112309F4CF
:1012400066C080919A0190919B01A0919C01B09100
:101250009D0126013701481A590A6A0A7B0AD301FF
:10126000C2010297A105B10514F18091010290918C
:10127000020201968A3091050CF09DC09093020203
:10128000809301020E9485016093950170939601FD
:10129000809397019093980181E080939401C0928C
:1012A0009A01D0929B01E0929C01F0929D01809165
:1012B0009A0190919B01A0919C01B0919D018C1984
:1012C0009D09AE09BF090297A105B10504F18091FE
:1012D000010290910202019797FD75C0909302025E
:1012E000809301020E94850160939501709396019D
:1012F000809397019093980181E080939401C0922C
:101300009A01D0929B01E0929C01F0929D01E091A4
:101310000102F09102028091C2019091C3018E17E7
:101320009F0709F4AEC010924B0210924A0210922D
:1013300045021092440210923F0210923E02109217
:101340003902109238021092330210923202109237
:101350002D0210922C021092270210922602109257
:10136000210210922002EA30F10508F082C0E55413
:10137000F64F0C94FD17E8094B0D790DAA0DAA0D37
:10138000DB0DE70DE70DE70DE70D0E94EE162EEAE7
:1013900037E441E85FE30E947C170E94BF16C4CE89
:1013A0000E94EE162EEA37E441E85FE30E944D16F4
:1013B0000E94BF1604CF49E0642E712C7092020285
:1013C000609201025FCF10920202109201028ACF56
:1013D00061E08CEB91E00E949E0186EB91E00E941F
:1013E000920180EB91E00E9492018AEA91E00E94D2
:1013F000920181E08093210182E08093220183E0C9
:101400008093230184E08093240185E0809325016B
:1014100086E08093260187E08093270188E080930F
:10142000280161E089EF91E00E949E0161E082EF76
:1014300091E00E949E0161E08BEE91E00E949E018E
:1014400061E084EE91E00E949E0161E08DED91E00B
:101450000E949E0161E086ED91E00E949E0161E0A4
:101460008FEC91E00E949E0161E088EC91E00E9487
:101470009E0180910102909102029093C30180939A
:10148000C20180910102909102028730910509F416
:101490008DC50CF0A1C38530910509F493C406975E
:1014A00009F40FC5F0904E02F1107FC08091200129
:1014B000882309F47AC00E9406010091C4011091AA
:1014C000C5012091C6013091C701601B710B820BD1
:1014D000930B00911702109118022091190230917C
:1014E0001A02061717072807390708F05EC000918F
:1014F0004A0210914B02C0904402D0904502A09144
:101500003E02B0913F02E0913802F09139026091C1
:1015100032027091330240912C0250912D022091A1
:101520002602309127028091200290912102E090C2
:101530004C02EE2011F40C945A130F5F1F4F1093BE
:101540004B0200934A020FEFC01AD00AD092450214
:10155000C09244021196B0933F02A0933E0231968E
:10156000F0933902E09338026F5F7F4F709333023C
:10157000609332024F5F5F4F50932D0240932C02D5
:101580002F5F3F4F309327022093260201969093BE
:101590002102809320020E9406016093C40170938F
:1015A000C5018093C6019093C70180914D028F15AC
:1015B00049F06F2D86E490E00E944F0280914E0228
:1015C00080934D0280914A0290914B0220914C02EF
:1015D000222311F40C948613209121012817190657
:1015E00071F40E9406016093460270934702809353
:1015F00048029093490210924B0210924A022091A5
:10160000220180914402909145022817190671F435
:101610000E9406016093400270934102809342024F
:1016200090934302109245021092440220912301AC
:1016300080913E0290913F022817190671F40E9492
:10164000060160933A0270933B0280933C029093B0
:101650003D0210923F0210923E022091240180919F
:101660003802909139022817190671F40E94060178
:101670006093340270933502809336029093370260
:101680001092390210923802209125018091320285
:10169000909133022817190671F40E940601609395
:1016A0002E0270932F028093300290933102109299
:1016B0003302109232022091260180912C029091E7
:1016C0002D022817190671F40E9406016093280262
:1016D0007093290280932A0290932B0210922D027C
:1016E00010922C02209127018091260290912702CE
:1016F0002817190671F40E94060160932202709364
:1017000023028093240290932502109227021092C4
:101710002602209128018091200290912102281711
:10172000190671F40E94060160931C0270931D0259
:1017300080931E0290931F021092210210922002A9
:1017400090911B0280912001992309F43CC58823C4
:1017500009F41BC58091170290911802A0911902FB
:10176000B0911A02B695A795979587958093130225
:1017700090931402A0931502B09316020E940601E2
:10178000C0901302D0901402E0901502F09016025F
:1017900020914602309147024091480250914902FF
:1017A0002B013C01421A530A640A750AA0912101D7
:1017B000B0E0A70196010E94091646165706680672
:1017C000790608F0EBC481E080930E020E940601C6
:1017D0000091400210914102209142023091430257
:1017E0002B013C01401A510A620A730AA09122019E
:1017F000B0E0A70196010E94091646165706680632
:10180000790608F0CEC481E080930D020E940601A3
:1018100000913A0210913B0220913C0230913D022E
:101820002B013C01401A510A620A730AA09123015C
:10183000B0E0A70196010E940916461657066806F1
:10184000790608F0B1C481E080930C020E94060181
:101850000091340210913502209136023091370206
:101860002B013C01401A510A620A730AA09124011B
:10187000B0E0A70196010E940916461657066806B1
:10188000790608F094C481E080930B020E9406015F
:1018900000912E0210912F022091300230913102DE
:1018A0002B013C01401A510A620A730AA0912501DA
:1018B000B0E0A70196010E94091646165706680671
:1018C000790608F077C481E080930A020E9406013D
:1018D000009128021091290220912A0230912B02B6
:1018E0002B013C01401A510A620A730AA091260199
:1018F000B0E0A70196010E94091646165706680631
:10190000790608F05AC481E0809309020E9406011A
:10191000009122021091230220912402309125028D
:101920002B013C01401A510A620A730AA091270157
:10193000B0E0A70196010E940916461657066806F0
:10194000790608F03DC481E0809308020E940601F8
:1019500000911C0210911D0220911E0230911F0265
:101960002B013C01401A510A620A730AA091280116
:10197000B0E0A70196010E940916461657066806B0
:10198000790608F00FC581E080930702809101027B
:101990009091020205970CF074C010910E02809194
:1019A000FF0190910002911131C5811741F061E072
:1019B000612789EF91E00E949E011093FF01109131
:1019C0000D028091F801811741F061E0612782EFFB
:1019D00091E00E949E011093F80110910C028091F9
:1019E000F101811741F061E061278BEE91E00E94E7
:1019F0009E011093F10110910B028091EA01811771
:101A000041F061E0612784EE91E00E949E01109315
:101A1000EA0110910A028091E301811741F061E02F
:101A200061278DED91E00E949E011093E3011091DA
:101A300009028091DC01811741F061E0612786EDA8
:101A400091E00E949E011093DC01109108028091A8
:101A5000D501811741F061E061278FEC91E00E9490
:101A60009E011093D501109107028091CE0181173C
:101A700041F061E0612788EC91E00E949E011093A3
:101A8000CE0180E090E0892B11F40C9404050E94B3
:101A900000000C9401058CEB91E00E94920161E042
:101AA00086EB91E00E949E0180EB91E00E94920102
:101AB0008AEA91E00E94920180912001811117C071
:101AC00082E08093210184E08093220186E080936C
:101AD000230188E0809324018AE0809325018CE033
:101AE000809326018EE08093270180E198CC81E0ED
:101AF000E8CF8CEB91E00E94920186EB91E00E948E
:101B0000920161E080EB91E00E949E018AEA91E0FF
:101B10000E94920180912001811117C084E080937E
:101B2000210188E0809322018CE08093230180E1F1
:101B30008093240184E18093250188E1809326012C
:101B40008CE18093270180E26ACC81E080932101BF
:101B500084E0E8CF8CEB91E00E94920186EB91E06B
:101B60000E94920180EB91E00E94920161E08AEA7A
:101B700091E00E949E0180912001811117C088E0B0
:101B80008093210180E18093220188E180932301E9
:101B900080E28093240188E28093250180E3809392
:101BA000260188E38093270180E439CC81E080938B
:101BB000210188E0E8CF37E0E32EF12CF092A90173
:101BC000E092A8011092A7011092A6012ACC1092CF
:101BD000A9011092A801F6CF8830910509F445C2F9
:101BE000099709F05FCC81E080934E020E94850145
:101BF0000091A2011091A3012091A4013091A501AF
:101C0000601B710B820B930B693C7105810591057B
:101C100008F43CC60E947C15A50194010E94EA15B7
:101C200063337105810591050CF473C261E08CEB9F
:101C300091E00E949E010E947C15A50194010E94E2
:101C4000EA1563337105810591050CF467C261E003
:101C500086EB91E00E949E010E947C15A5019401F3
:101C60000E94EA1563337105810591050CF45BC28E
:101C700061E080EB91E00E949E010E947C15A5012D
:101C800094010E94EA1563337105810591050CF4F6
:101C90004FC261E08AEA91E00E949E010E947C1599
:101CA000A50194010E94EA15633371058105910530
:101CB0000CF443C261E089EF91E00E949E010E9412
:101CC0007C15A50194010E94EA1563337105810515
:101CD00091050CF437C261E082EF91E00E949E0111
:101CE0000E947C15A50194010E94EA1563337105D9
:101CF000810591050CF42BC261E08BEE91E00E940E
:101D00009E010E947C15A50194010E94EA1563338F
:101D10007105810591050CF41FC261E084EE91E02C
:101D20000E949E010E947C15A50194010E94EA1563
:101D300063337105810591050CF413C261E08DEDEB
:101D400091E00E949E010E947C15A50194010E94D1
:101D5000EA1563337105810591050CF407C261E052
:101D600086ED91E00E949E010E947C15A5019401E0
:101D70000E94EA1563337105810591050CF4FBC1DE
:101D800061E08FEC91E00E949E010E947C15A5010C
:101D900094010E94EA1563337105810591050CF4E5
:101DA000EFC161E088EC91E00E949E0181E090E04B
:101DB0002091A6013091A701232B09F451C190E095
:101DC00080E04EC161E08CEB91E00E949E0161E0F9
:101DD00086EB91E00E949E0180EB91E00E949201CF
:101DE0008AEA91E00E94920181E080934E020E9473
:101DF00085010091A2011091A3012091A4013091CD
:101E0000A501601B710B820B930B69327105810573
:101E1000910508F43BC50091A8011091A901083073
:101E2000110598F4F801E75EF04F6091A6010C945B
:101E3000FD17210F4C0F4F0F520F550F580F5B0F0F
:101E40005E0F89EF91E00E949E01015011091093ED
:101E5000A9010093A80117FF14C081E090E0209130
:101E6000A6013091A701232B11F090E080E0909320
:101E7000A7018093A60107E010E01093A901009349
:101E8000A8010E9485016093A2017093A301809331
:101E9000A4019093A50106CB82EF91E0D4CF8BEE05
:101EA00091E0D1CF84EE91E0CECF8DED91E0CBCF1C
:101EB00086ED91E0C8CF8FEC91E0C5CF88EC91E042
:101EC000C2CF8CEB91E00E94920186EB91E00E94E0
:101ED000920161E080EB91E00E949E0161E08AEA5C
:101EE00091E00E949E0181E080934E020E94850154
:101EF0000091A2011091A3012091A4013091A501AC
:101F0000601B710B820B930B693271058105910582
:101F100008F4BCC40091A8011091A9010830110572
:101F200098F4F801E856F04F6091A6010C94FD1763
:101F3000A00FC10FC40FC70FCA0FCD0FD00FD30F03
:101F400089EF91E00E949E010F5F1F4F1093A9013E
:101F50000093A801083011050CF493CF81E090E0C4
:101F60002091A6013091A701232B11F090E080E091
:101F70009093A7018093A6011092A9011092A80145
:101F800080CF82EF91E0DECF8BEE91E0DBCF84EE6D
:101F900091E0D8CF8DED91E0D5CF86ED91E0D2CF15
:101FA0008FEC91E0CFCF88EC91E0CCCF8CEB91E03F
:101FB0000E94920186EB91E00E94920180EB91E0F9
:101FC0000E9492018AEA91E00E94920181E080934E
:101FD0004E020E9485010091A2011091A30120915F
:101FE000A4013091A501601B710B820B930B6D3224
:101FF00071408105910508F449C4E090A601F09074
:10200000A70111E0E114F10409F010E0612F89EF5C
:1020100091E00E949E016E2D82EF91E00E949E0150
:10202000612F8BEE91E00E949E016E2D84EE91E077
:102030000E949E01612F8DED91E00E949E016E2D08
:1020400086ED91E00E949E01612F8FEC91E00E944D
:102050009E016E2D88EC91E00E949E01812F90E000
:102060009093A7018093A6010CCF61E08CEB91E0E7
:102070000E949E0161E086EB91E00E949E0161E07A
:1020800080EB91E00E949E0161E08AEA91E00E946B
:102090009E0181E080934E020E9485010091A20181
:1020A0001091A3012091A4013091A501601B710B37
:1020B000820B930B6D3271408105910508F4E6C3E4
:1020C000E090A601F090A70111E0E114F10409F0FD
:1020D00010E0612F89EF91E00E949E01612F82EF55
:1020E00091E00E949E01612F8BEE91E00E949E0183
:1020F000612F84EE91E00E949E016E2D8DED91E0A6
:102100000E949E016E2D86ED91E00E949E016E2D33
:102110009CCF8CEB91E00E9492018DCD86EB91E0FB
:102120000E94920199CD80EB91E00E949201A5CD91
:102130008AEA91E00E949201B1CD89EF91E00E947C
:102140009201BDCD82EF91E00E949201C9CD8BEE4C
:1021500091E00E949201D5CD84EE91E00E9492011F
:10216000E1CD8DED91E00E949201EDCD86ED91E003
:102170000E949201F9CD8FEC91E00E94920105CE70
:1021800088EC91E00E94920111CE80910F02909113
:102190001002A0911102B0911202E4CA10920E0234
:1021A00015CB10920D0232CB10920C024FCB109235
:1021B0000B026CCB10920A0289CB10920902A6CBBB
:1021C00010920802C3CB882309F4EFC08091030268
:1021D00090910402A0910502B0910602853F01E0B2
:1021E0009007A105B105A8F0813C9D45A105B10569
:1021F00008F0EAC0609117027091180280911902EC
:1022000090911A022AE030E040E050E00E941C1653
:10221000DFC088E99AE3A0E0B0E0809313029093D6
:102220001402A0931502B09316020E940601C090FA
:102230001302D0901402E0901502F0901602009163
:102240004602109147022091480230914902601BDA
:10225000710B820B930B6C157D058E059F0508F0A5
:10226000C0C081E080930E020E94060100914002EE
:10227000109141022091420230914302601B710B88
:10228000820B930B6C157D058E059F0508F0ACC085
:1022900081E080930D020E94060100913A021091A4
:1022A0003B0220913C0230913D02601B710B820B7E
:1022B000930B6C157D058E059F0508F098C081E095
:1022C00080930C020E9406010091340210913502A5
:1022D0002091360230913702601B710B820B930BF9
:1022E0006C157D058E059F0508F084C081E0809304
:1022F0000B020E94060100912E0210912F022091E4
:10230000300230913102601B710B820B930B6C1504
:102310007D058E059F0508F070C081E080930A025C
:102320000E940601009128021091290220912A02A0
:1023300030912B02601B710B820B930B6C157D058A
:102340008E059F0508F05CC081E0809309020E9421
:102350000601009122021091230220912402309163
:102360002502601B710B820B930B6C157D058E058E
:102370009F0508F048C081E0809308020E94060192
:1023800000911C0210911D0220911E0230911F022B
:10239000601B710B820B930B6C157D058E059F05E1
:1023A00008F4F1CA10920702F1CA60910F0270910D
:1023B000100280911102909112026136A9E07A0711
:1023C0008105910508F01ECF2AEF30E040E050E093
:1023D0002093130230931402409315025093160277
:1023E00024CF10920E0240CF10920D0254CF1092C3
:1023F0000C0268CF10920B027CCF10920A0290CF91
:1024000010920902A4CF10920802B8CF811709F4E4
:1024100038CB112309F4F3C00E947C158B019C0179
:102420006091210170E08AE590E00E94E9176B015C
:10243000770FEE08FF08C901B801A50194010E94B9
:10244000EA156C157D058E059F0524F489EF91E052
:102450000E9492010E947C158B019C0160912201D7
:1024600070E080EA90E00E94E9176B01770FEE08B8
:10247000FF08C901B801A50194010E94EA156C1575
:102480007D058E059F0524F482EF91E00E94920164
:102490000E947C158B019C016091230170E0C101B9
:1024A0000E94E9176B01770FEE08FF08C901B80118
:1024B000A50194010E94EA156C157D058E059F0506
:1024C00024F48BEE91E00E9492010E947C158B0116
:1024D0009C016091240170E080EF90E00E94E91778
:1024E0006B01770FEE08FF08C901B801A50194013F
:1024F0000E94EA156C157D058E059F0524F484EE77
:1025000091E00E9492010E947C158B019C016091D8
:10251000250170E08AEF90E00E94E9176B01770FC8
:10252000EE08FF08C901B801A50194010E94EA154F
:102530006C157D058E059F0524F48DED91E00E94BC
:1025400092010E947C158B019C016091260170E034
:1025500080EF90E00E94E9176B01770FEE08FF080B
:10256000C901B801A50194010E94EA156C157D0509
:102570008E059F0524F486ED91E00E9492010E9451
:102580007C158B019C016091270170E0C1010E94C4
:10259000E9176B01770FEE08FF08C901B801A50123
:1025A00094010E94EA156C157D058E059F0524F4A3
:1025B0008FEC91E00E9492010E947C158B019C019E
:1025C0006091280170E080EA90E00E94E9176B01B9
:1025D000770FEE08FF08C901B801A50194010E9418
:1025E000EA156C157D058E059F0524F488EC91E0B5
:1025F0000E94920180910E028093FF0142CA61E025
:1026000089EF91E00E949E0161E082EF91E00E94DB
:102610009E0161E08BEE91E00E949E0161E084EEFC
:1026200091E00E949E0161E08DED91E00E949E018B
:1026300061E086ED91E00E949E0161E08FEC91E007
:102640000E949E0161E088EC91E00E949E01D2CF41
:102650000150110910934B0200934A0201E0C01A85
:10266000D108D0924502C09244021197B0933F0224
:10267000A0933E023197F0933902E0933802615003
:1026800071097093330260933202415051095093A3
:102690002D0240932C0221503109309327022093C0
:1026A000260201970C945B05109294011092790117
:1026B0000C9446080150110910934B0200934A02F2
:1026C00011E0C11AD108D0924502C092440211977C
:1026D000B0933F02A0933E023197F0933902E0930A
:1026E0003802615071097093330260933202415095
:1026F000510950932D0240932C02215031093093FF
:1027000027022093260201970C94C70A97FF12C054
:102710000E9406016093460270934702809348022C
:1027200090934902809121018150990B90934B0223
:1027300080934A02809144029091450297FF12C013
:102740000E9406016093400270934102809342020E
:1027500090934302809122018150990B90934502FE
:102760008093440280913E0290913F0297FF12C0F5
:102770000E94060160933A0270933B0280933C02F0
:1027800090933D02809123018150990B90933F02D9
:1027900080933E02809138029091390297FF12C0D7
:1027A0000E940601609334027093350280933602D2
:1027B00090933702809124018150990B90933902B4
:1027C00080933802809132029091330297FF12C0B9
:1027D0000E94060160932E0270932F0280933002B4
:1027E00090933102809125018150990B909333028F
:1027F0008093320280912C0290912D0297FF12C09B
:102800000E940601609328027093290280932A0295
:1028100090932B02809126018150990B90932D0269
:1028200080932C02809126029091270297FF12C07C
:102830000E94060160932202709323028093240277
:1028400090932502809127018150990B9093270244
:1028500080932602809120029091210297FD02C070
:102860000C94A00B0E94060160931C0270931D0241
:1028700080931E0290931F02809128018150990B32
:1028800090932102809320020C94A00BF0904E02B2
:102890000C94D50ACF93DF9382E00E948D0080E0F4
:1028A0000E948D00ECE9F0E0E491F0E0EE0FFF1FF4
:1028B000E458FF4FA591B491B0935B01A0935A01E6
:1028C000E0EBF0E0449140935E01EAE9F0E0E4914E
:1028D000F0E0EE0FFF1FE458FF4FC591D491D09365
:1028E0005D01C0935C01EEEAF0E0E491E0935F01EA
:1028F00010926101109262011092630110926401C2
:102900002BE33FE1C9010197F1F79C91842F8923C3
:1029100091E009F490E08881E82309F092609093B7
:1029200060018AE591E090934B0180934A0180E138
:1029300092E09093190180931801809169008C7F37
:10294000816080936900E89A81E08093650168E086
:1029500089EF91E00E94AA0169E082EF91E00E9474
:10296000AA016AE08BEE91E00E94AA016BE084EE7E
:1029700091E00E94AA016CE08DED91E00E94AA0115
:102980006DE086ED91E00E94AA0166E08FEC91E097
:102990000E94AA0167E088EC91E00E94AA0161E12F
:1029A0008CEB91E00E94AA0160E186EB91E00E942D
:1029B000AA0162E180EB91E00E94AA0163E18AEA48
:1029C00091E00E94AA0163E08EE891E00E94AA01D2
:1029D00062E084E591E00E94AA0160E08EE491E06B
:1029E000DF91CF910C94AA018EE491E00E943F0206
:1029F00084E591E00E943F028EE891E00E943F0250
:102A00008AEA91E00E943F0280EB91E00E943F023F
:102A100086EB91E00E943F028CEB91E00E943F0226
:102A200088EC91E00E943F028FEC91E00E943F020F
:102A300086ED91E00E943F028DED91E00E943F0201
:102A400084EE91E00E943F028BEE91E00E943F02F3
:102A500082EF91E00E943F0289EF91E00C943F02E7
:102A60008F929F92AF92BF92CF92DF92EF92FF929E
:102A7000CF93DF93EC01688179818A819B81611515
:102A800071058105910521F464E279ED8BE597E00C
:102A90002DE133EF41E050E00E94EA1549015A016F
:102AA0009B01AC01A7EAB1E40E9409166B017C010D
:102AB000ACEEB4EFA50194010E941716C60ED71E06
:102AC000E81EF91EF7FE06C081E0C81AD108E10829
:102AD00080E8F80AC882D982EA82FB82C701B6017F
:102AE0009F77DF91CF91FF90EF90DF90CF90BF90D5
:102AF000AF909F908F9008958F929F92AF92BF92C8
:102B0000CF92DF92EF92FF926091290170912A019A
:102B100080912B0190912C01611571058105910522
:102B200021F464E279ED8BE597E02DE133EF41E0AC
:102B300050E00E94EA1549015A019B01AC01A7EA45
:102B4000B1E40E9409166B017C01ACEEB4EFA50163
:102B500094010E941716C60ED71EE81EF91EF7FE36
:102B600006C081E0C81AD108E10880E8F80AC092DE
:102B70002901D0922A01E0922B01F0922C01C70189
:102B8000B6019F77FF90EF90DF90CF90BF90AF900E
:102B90009F908F9008956093290170932A018093EC
:102BA0002B0190932C010895F999FECF92BD81BD20
:102BB000F89A992780B50895262FF999FECF1FBA64
:102BC00092BD81BD20BD0FB6F894FA9AF99A0FBE56
:102BD00001960895052E97FB1EF400940E9401169D
:102BE00057FD07D00E941C1607FC03D04EF40C942E
:102BF000011650954095309521953F4F4F4F5F4FAF
:102C0000089590958095709561957F4F8F4F9F4F58
:102C100008950E943E16A59F900DB49F900DA49F0D
:102C2000800D911D11240895B7FF0C9409160E9480
:102C30000916821B930B0895A1E21A2EAA1BBB1B37
:102C4000FD010DC0AA1FBB1FEE1FFF1FA217B30778
:102C5000E407F50720F0A21BB30BE40BF50B661F8E
:102C6000771F881F991F1A9469F760957095809552
:102C700090959B01AC01BD01CF010895A29FB001C9
:102C8000B39FC001A39F700D811D1124911DB29FA0
:102C9000700D811D1124911D08950E9461160C94E0
:102CA00042170E943B1758F00E94341740F029F455
:102CB0005F3F29F00C942B1751110C9476170C944C
:102CC00031170E94531768F39923B1F3552391F3F9
:102CD000951B550BBB27AA2762177307840738F08B
:102CE0009F5F5F4F220F331F441FAA1FA9F335D0E8
:102CF0000E2E3AF0E0E832D091505040E695001C9C
:102D0000CAF72BD0FE2F29D0660F771F881FBB1F55
:102D1000261737074807AB07B0E809F0BB0B802D33
:102D2000BF01FF2793585F4F3AF09E3F510578F05F
:102D30000C942B170C9476175F3FE4F3983ED4F372
:102D4000869577956795B795F7959F5FC9F7880F33
:102D5000911D9695879597F90895E1E0660F771F85
:102D6000881FBB1F621773078407BA0720F0621B16
:102D7000730B840BBA0BEE1F88F7E09508950E9441
:102D80005B1788F09F5798F0B92F9927B751B0F08B
:102D9000E1F0660F771F881F991F1AF0BA95C9F7DF
:102DA00014C0B13091F00E947517B1E008950C94F1
:102DB0007517672F782F8827B85F39F0B93FCCF3A4
:102DC000869577956795B395D9F73EF4909580955C
:102DD000709561957F4F8F4F9F4F0895E89409C07C
:102DE00097FB3EF490958095709561957F4F8F4F3E
:102DF0009F4F9923A9F0F92F96E9BB279395F69554
:102E0000879577956795B795F111F8CFFAF4BB0FD1
:102E100011F460FF1BC06F5F7F4F8F4F9F4F16C035
:102E2000882311F096E911C0772321F09EE8872FBF
:102E3000762F05C0662371F096E8862F70E060E07B
:102E40002AF09A95660F771F881FDAF7880F9695F4
:102E5000879597F9089597F99F6780E870E060E09B
:102E600008959FEF80EC089500240A941616170623
:102E700018060906089500240A941216130614066B
:102E800005060895092E0394000C11F4882352F0CE
:102E9000BB0F40F4BF2B11F460FF04C06F5F7F4F86
:102EA0008F4F9F4F089557FD9058440F551F59F06D
:102EB0005F3F71F04795880F97FB991F61F09F3F27
:102EC00079F087950895121613061406551FF2CF50
:102ED0004695F1DF08C0161617061806991FF1CFA0
:102EE00086957105610508940895E894BB276627C7
:102EF0007727CB0197F908950E948F170C944217FA
:102F00000E94341738F00E943B1720F0952311F0EF
:102F10000C942B170C94311711240C9476170E94E3
:102F2000531770F3959FC1F3950F50E0551F629FA3
:102F3000F001729FBB27F00DB11D639FAA27F00D12
:102F4000B11DAA1F649F6627B00DA11D661F829F39
:102F50002227B00DA11D621F739FB00DA11D621F1E
:102F6000839FA00D611D221F749F3327A00D611D3B
:102F7000231F849F600D211D822F762F6A2F11241D
:102F80009F5750409AF0F1F088234AF0EE0FFF1F50
:102F9000BB1F661F771F881F91505040A9F79E3FA7
:102FA000510580F00C942B170C9476175F3FE4F3D7
:102FB000983ED4F3869577956795B795F795E795FD
:102FC0009F5FC1F7FE2B880F911D9695879597F906
:102FD000089597FB072E16F4009407D077FD09D0CB
:102FE0000E94031807FC05D03EF4909581959F4FF1
:102FF0000895709561957F4F0895EE0FFF1F05901E
:10300000F491E02D0994AA1BBB1B51E107C0AA1F34
:10301000BB1FA617B70710F0A61BB70B881F991F79
:103020005A95A9F780959095BC01CD01089510E0BF
:10303000C2E6D0E004C0FE010E94FD172196C3360F
:10304000D107C9F7F894FFCFB900B900B900B900AA
:10305000B900B900B900B900B900B900B900B900A8
:1030600091019101B900B9000101020304050607AD
:1030700008010000001100100012001300080009F0
:0E308000000A000B000C000D00060007000007
:107E0000112484B714BE81FFF0D085E080938100F7
:107E100082E08093C00088E18093C10086E0809377
:107E2000C20080E18093C4008EE0C9D0259A86E02C
:107E300020E33CEF91E0309385002093840096BBD3
:107E4000B09BFECF1D9AA8958150A9F7CC24DD24C4
:107E500088248394B5E0AB2EA1E19A2EF3E0BF2EE7
:107E6000A2D0813461F49FD0082FAFD0023811F036
:107E7000013811F484E001C083E08DD089C08234E0
:107E800011F484E103C0853419F485E0A6D080C0E4
:107E9000853579F488D0E82EFF2485D0082F10E0AE
:107EA000102F00270E291F29000F111F8ED06801E7
:107EB0006FC0863521F484E090D080E0DECF843638
:107EC00009F040C070D06FD0082F6DD080E0C81688
:107ED00080E7D80618F4F601B7BEE895C0E0D1E017
:107EE00062D089930C17E1F7F0E0CF16F0E7DF06D8
:107EF00018F0F601B7BEE89568D007B600FCFDCFD4
:107F0000A601A0E0B1E02C9130E011968C91119780
:107F100090E0982F8827822B932B1296FA010C0160
:107F200087BEE89511244E5F5F4FF1E0A038BF0790
:107F300051F7F601A7BEE89507B600FCFDCF97BE46
:107F4000E89526C08437B1F42ED02DD0F82E2BD052
:107F50003CD0F601EF2C8F010F5F1F4F84911BD097
:107F6000EA94F801C1F70894C11CD11CFA94CF0C13
:107F7000D11C0EC0853739F428D08EE10CD085E9AC
:107F80000AD08FE07ACF813511F488E018D01DD067
:107F900080E101D065CF982F8091C00085FFFCCF94
:107FA0009093C60008958091C00087FFFCCF809118
:107FB000C00084FD01C0A8958091C6000895E0E648
:107FC000F0E098E1908380830895EDDF803219F02E
:107FD00088E0F5DFFFCF84E1DECF1F93182FE3DFCA
:107FE0001150E9F7F2DF1F91089580E0E8DFEE27F6
:047FF000FF270994CA
:027FFE00040479
:00000001FF
