:020000040000FA
:100000000C9463000C94C4020C949D020C948B001D
:100010000C9452030C94EB020C948B000C948B0008
:100020000C948B000C948B000C948B000C948B0024
:100030000C948B000C948B000C948B000C948B0014
:100040000C9453020C948B000C948B000C948B003A
:100050000C948B000C948B000C948B000C948B00F4
:100060000C948B000C948B0000000008000201002F
:100070000003040700000000000000000000000072
:1000800023002600290000000000250028002B0086
:1000900000000000240027002A00040404040404D3
:1000A0000404020202020202030303030303010227
:1000B00004081020408001020408102001020408F6
:1000C00010207A14241511241FBECFEFD8E0DEBF14
:1000D000CDBF11E0A0E0B1E0E8EAF0E302C0059096
:1000E0000D92A634B107D9F722E0A6E4B1E001C031
:1000F0001D92A535B207E1F710E0C2E6D0E004C0DA
:100100002197FE010E942D18C136D107C9F70E9420
:10011000AB030C9447180C940000CF93DF9390E04E
:10012000FC01E255FF4F249186569F4FFC018491BC
:100130008823C1F090E0880F991FFC01E057FF4F22
:10014000C591D491FC01EA57FF4FA591B4919FB797
:10015000F8943881822F809583238883EC91E22B59
:10016000EC939FBFDF91CF91089581E0809375015B
:100170000895089590E0FC01E859FF4F2491FC0197
:10018000E255FF4F3491FC01E656FF4FE491EE2318
:10019000C9F0222339F0233001F1A8F4213019F1FC
:1001A000223029F1F0E0EE0FFF1FEA57FF4FA59133
:1001B000B4918FB7F894EC91611126C030953E232D
:1001C0003C938FBF08952730A9F02830C9F0243020
:1001D00049F7809180008F7D03C0809180008F77E8
:1001E00080938000DFCF84B58F7784BDDBCF84B56B
:1001F0008F7DFBCF8091B0008F778093B000D2CFFE
:100200008091B0008F7DF9CF3E2BDACF3FB7F894C5
:1002100080916B0190916C01A0916D01B0916E0184
:1002200026B5A89B05C02F3F19F00196A11DB11D51
:100230003FBFBA2FA92F982F8827BC01CD01620F8D
:10024000711D811D911D42E0660F771F881F991F48
:100250004A95D1F708950F931F9381E0809376011B
:100260000E9406010091460110914701209148012A
:1002700030914901601B710B820B930B6093150247
:100280007093160280931702909318020E94060141
:100290006093460170934701809348019093490110
:1002A0001F910F9108958F929F92AF92BF92CF921C
:1002B000DF92EF92FF924B015C010E9406016B01FD
:1002C0007C010E9406016C197D098E099F09683E18
:1002D000734081059105A8F321E0821A9108A108D5
:1002E000B10888EEC80E83E0D81EE11CF11C811411
:1002F0009104A104B10429F7FF90EF90DF90CF9013
:10030000BF90AF909F908F9008952FB7F894609111
:100310006701709168018091690190916A012FBF16
:1003200008950895DC011496ED91FC911597908144
:1003300011968C918095892380830895FC01611129
:1003400002C00C949201A481B5819C918181892B7A
:100350008C930895DC0170E0FB01E255FF4FE491BE
:100360001196EC93119766567F4FFB0124912C93C5
:1003700030E0220F331FF901E057FF4F8591949130
:1003800013969C938E931297F901EA57FF4F85912C
:10039000949115969C938E9314970895DC01ED919A
:1003A000FD918081ED91FD919081ED91FD916C9198
:1003B00063708E2309F064609F2309F06860EBEEA0
:1003C000F1E0E60FF11D659565956D936D917D9159
:1003D0008D919D91099423C01AC012C016C010C0FF
:1003E0001EC009C014C013C006C019C009C00DC08A
:1003F00007C00DC014C062507040804090400BC0D8
:10040000615070408040904006C06E5F01C06F5FD9
:100410007F4F8F4F9F4F9E938E937E936E93089541
:1004200080914A0190914B010C94CE0180914C0136
:1004300090914D010C94CE01809165018230E8F4D9
:10044000F8948AE591E00E94CE016091610170917B
:1004500062018091630190916401789422E030E020
:1004600040E050E00E941A162093A4013093A501A9
:100470004093A6015093A7010895F894E6CFFC019C
:10048000A281B3818C919181909598239C93A481B2
:10049000B5819C918181809589238C9308950C94DA
:1004A0000C160C9404161F920F920FB60F92112483
:1004B0002F933F938F939F93AF93BF938091670147
:1004C00090916801A0916901B0916A013091660133
:1004D00023E0230F2D3758F50196A11DB11D209360
:1004E00066018093670190936801A0936901B093BE
:1004F0006A0180916B0190916C01A0916D01B091A6
:100500006E010196A11DB11D80936B0190936C014A
:10051000A0936D01B0936E01BF91AF919F918F91A8
:100520003F912F910F900FBE0F901F90189526E8C6
:10053000230F0296A11DB11DD2CF1F920F920FB6AD
:100540000F9211242F933F934F935F936F937F9359
:100550008F939F93AF93BF93EF93FF93E0911A0113
:10056000F0911B010995FF91EF91BF91AF919F9180
:100570008F917F916F915F914F913F912F910F904C
:100580000FBE0F901F9018951F920F920FB60F92EB
:1005900011242F933F934F935F936F937F938F9388
:1005A0009F93AF93BF93EF93FF93E0911801F09166
:1005B00019010995FF91EF91BF91AF919F918F9193
:1005C0007F916F915F914F913F912F910F900FBE4F
:1005D0000F901F9018951F920F920FB60F92112433
:1005E0002F933F934F935F936F937F938F939F933B
:1005F000AF93BF93CF93EF93FF9389B1C0917101F4
:1006000090917401C923982F9095C923809371010B
:10061000C4FF05C0E0910A01F0910B010995C5FFE7
:1006200005C0E0910C01F0910D010995C6FF05C0D0
:10063000E0910E01F0910F010995C7FF05C0E0910F
:100640001001F09111010995C0FF05C0E091120160
:10065000F09113010995C1FF05C0E0911C01F091D3
:100660001D010995C2FF05C0E0911401F09115012B
:100670000995C3FF05C0E0911601F0911701099596
:10068000FF91EF91CF91BF91AF919F918F917F910A
:100690006F915F914F913F912F910F900FBE0F90EF
:1006A0001F9018951F920F920FB60F9211242F933F
:1006B0003F934F935F936F937F938F939F93AF93EA
:1006C000BF93CF93EF93FF9386B1C0917001909148
:1006D0007301C923982F9095C92380937001C0FF9F
:1006E00005C0E0911E01F0911F010995C1FF05C0F1
:1006F000E0910001F09101010995C2FF05C0E09170
:100700000201F09103010995C3FF05C0E0910401C6
:10071000F09105010995C4FF05C0E0910601F09133
:1007200007010995C5FF05C0E0910801F091090195
:100730000995FF91EF91CF91BF91AF919F918F91CB
:100740007F916F915F914F913F912F910F900FBECD
:100750000F901F901895CF93DF9300D000D01F9279
:10076000CDB7DEB7789484B5826084BD84B58160EE
:1007700084BD85B5826085BD85B5816085BD80916C
:100780006E00816080936E001092810080918100E4
:1007900082608093810080918100816080938100DC
:1007A000809180008160809380008091B10084609E
:1007B0008093B1008091B00081608093B0008091FF
:1007C0007A00846080937A0080917A0082608093BE
:1007D0007A0080917A00816080937A0080917A001B
:1007E000806880937A001092C10085EB90E090932E
:1007F0001F0180931E0180917301816080937301BA
:1008000086B18093700180916C00816080936C0050
:10081000809168008260809368008BE291E0909301
:100820001D0180931C01809174018260809374018A
:1008300089B18093710180916D00826080936D0019
:10084000809168008460809368008CE192E09093CE
:10085000190180931801809169008C7F81608093D9
:100860006900E89A86E490E00E94510291E08111CB
:1008700001C090E0909354028AE090E00E945102FF
:1008800091E0811101C090E09093520284E190E0E8
:100890000E94510291E0811101C090E090932102E9
:1008A00088E290E00E94510290E0909308028093C9
:1008B00007028EE190E00E94510291E0811101C097
:1008C00090E09093060282E390E00E945102282F6C
:1008D00030E050E040E02093090230930A02409358
:1008E0000B0250930C0260E077E883E993E00E94EA
:1008F0004C1620931D0230931E0240931F0250930A
:10090000200205E311E01A830983A981BA818C9141
:100910001296BA83A98361E00E94BA00E981FA8144
:10092000E554F14091F76CE271E080E090E00E94C4
:10093000530145E351E05A834983A981BA818C91DF
:100940001296BA83A98360E00E94BA0068E270E060
:1009500080E090E00E945301E981FA81E554F14082
:1009600061F7D8018C910E5F1F4F61E00E94BA00C1
:1009700068E270E080E090E00E94530149805A8074
:100980004016510671F7E4E0EE2EF12C1A8219821E
:100990007DE2C72E71E0D72E10E000E0D6018C91E9
:1009A000B2E0CB0ED11C49805A8061E0401651065E
:1009B00009F060E00E94BA000F5F1F4F043011057C
:1009C00069F768E270E080E090E00E9453010981DD
:1009D0001A810F5F1F4F1A83098304301105C1F676
:1009E00011E0E11AF10891F661E081E10E94BA009C
:1009F00060E083E10E94BA0064E6862E912CA12C6F
:100A0000B12C52ED252E312C80917601882309F4EA
:100A100058C0109220010091500210915102C090D4
:100A20004A02D0904B02A0914402B0914502E0915D
:100A30003E02F0913F02609138027091390240917C
:100A400032025091330220912C0230912D0280917C
:100A5000260290912702F0905202FF2011F40C948C
:100A600058130F5F1F4F10935102009350020FEF66
:100A7000C01AD00AD0924B02C0924A021196B0938B
:100A80004502A09344023196F0933F02E0933E0268
:100A90006F5F7F4F70933902609338024F5F5F4FF3
:100AA00050933302409332022F5F3F4F30932D0219
:100AB00020932C0201969093270280932602109295
:100AC000760180917501882311F1109251021092E4
:100AD000500210924B0210924A021092450210925C
:100AE000440210923F0210923E021092390210927C
:100AF0003802109233021092320210922D0210929C
:100B00002C02109227021092260210927501E09199
:100B10009401F0E0EE0FFF1FE458FF4FA591B49150
:100B20004C9180919501482381E009F080E0809309
:100B30009F018091070290910802049741F4442399
:100B400031F023E030E030930802209307028091D7
:100B50000702909108029C0125503109223031058D
:100B600008F044C0442309F441C0059709F07EC150
:100B700081E08093520210925402609152028AE006
:100B800090E00E944F0261E08FEF91E00E949E0191
:100B900061E088EF91E00E949E0161E081EF91E0C9
:100BA0000E949E0161E08AEE91E00E949E0161E058
:100BB00083EE91E00E949E0161E08CED91E00E9445
:100BC0009E0161E085ED91E00E949E0161E08EEC66
:100BD00091E00E949E011092060260E08EE190E09A
:100BE0000E944F02109208021092070280910702A1
:100BF000909108029C012750310922303105E8F517
:100C000020919F01211139C0079709F032C110923C
:100C10002102109254026091210284E190E00E942E
:100C20004F0261E08FEF91E00E949E0161E088EF4A
:100C300091E00E949E0161E081EF91E00E949E019F
:100C400061E08AEE91E00E949E0161E083EE91E016
:100C50000E949E0161E08CED91E00E949E0161E0A6
:100C600085ED91E00E949E0161E08EEC91E00E9492
:100C70009E01109208021092070280910702909143
:100C800008020997D1F580919F01811136C0109219
:100C9000540281E08093060261E08EE190E00E94C0
:100CA0004F0261E08FEF91E00E949E0161E088EFCA
:100CB00091E00E949E0161E081EF91E00E949E011F
:100CC00061E08AEE91E00E949E0161E083EE91E096
:100CD0000E949E0161E08CED91E00E949E0161E026
:100CE00085ED91E00E949E0161E08EEC91E00E9412
:100CF0009E01109208021092070280919A018823A7
:100D000081F080919F0181110CC00E948501609348
:100D100090017093910180939201909393011092AE
:100D20009A010E94850100919001109191012091FA
:100D3000920130919301601B710B820B930B693C04
:100D400071058105910508F432C180919A018111E4
:100D50002EC18091540281112AC160909F0180911F
:100D60008F018615A1F1709089018091A401909165
:100D7000A501A091A601B091A7018093A001909335
:100D8000A101A093A201B093A301C0909B01D090B8
:100D90009C01E0909D01F0909E01662009F46DC0D9
:100DA0000E9485016C197D098E099F0963337105C5
:100DB0008105910550F00E94850160939B0170931D
:100DC0009C0180939D0190939E0160928F01D09031
:100DD000890180918801D81609F4ABC0D11083C075
:100DE0000E940601609384017093850180938601BF
:100DF000909387018091800190918101A09182015F
:100E0000B0918301409184015091850160918601E8
:100E100070918701481759076A077B0708F06EC071
:100E20002C013D01441A550A660A770AA301920172
:100E3000293803E130074105510508F46CC02093BF
:100E40001D0230931E0240931F025093200260E067
:100E500077E883E993E00E944C16209309023093CF
:100E60000A0240930B0250930C0255C0109252029A
:100E700082CE81E080932102CCCE0E9485016C1944
:100E80007D098E099F096A3F71058105910508F06A
:100E90009CCF80918E01811123C00E948501009119
:100EA0008A0110918B0120918C0130918D01601B82
:100EB000710B820B930B633371058105910508F467
:100EC00084CF81E07826709289010E948501609329
:100ED0008A0170938B0180938C0190938D0175CF63
:100EE00010928E0172CF0E94060160938001709370
:100EF000810180938201909383017CCF9A01AB01A1
:100F0000281B390B4A0B5B0B293813E131074105CC
:100F1000510508F094CF8091070290910802019743
:100F20009093C9018093C80181E080932001D09201
:100F3000880180919F018823D1F10E948501009151
:100F40009B0110919C0120919D0130919E01601B9D
:100F5000710B820B930B6D3D75408105910538F146
:100F600081E080937F0180938E0110925102109254
:100F7000500210924B0210924A02109245021092B7
:100F8000440210923F0210923E02109239021092D7
:100F90003802109233021092320210922D021092F7
:100FA0002C02109227021092260280935402809104
:100FB0002001882351F1C0900902D0900A02E090EC
:100FC0000B02F0900C0280917D0190917E01092E20
:100FD000000CAA0BBB0B8C159D05AE05BF05A9F037
:100FE0003FEFC316D104E104F10409F050F40E946C
:100FF00085016093790170937A0180937B019093CE
:101000007C01D0927E01C0927D010E9485010091F9
:10101000790110917A0120917B0130917C01601B54
:10102000710B820B930B693B7B408105910508F4A2
:10103000DBC181E080937801809178019091770104
:10104000981761F0882331F06091090282E390E003
:101050000E944F02809178018093770110919F0147
:1010600080915402882309F43FC080918F01811739
:10107000C9F18091A4019091A501A091A601B09120
:10108000A7018093A0019093A101A093A201B09326
:10109000A30180917F0181110C9484130E9485012A
:1010A00060939B0170939C0180939D0190939E019E
:1010B0002091090230910A0240910B0250910C02DA
:1010C00060E077E883E993E00E944C1620931D02CC
:1010D00030931E0240931F025093200210929A01F7
:1010E0001092540210938F0180918F01811789F023
:1010F00011110BC0609107027091080264307105F4
:1011000024F488E290E00E944F0280919F01809336
:101110008F01C090A401D090A501E090A601F090AD
:10112000A7018091A0019091A101A091A201B0918D
:10113000A301C816D906EA06FB0609F417C11091E7
:101140009F0120912001222309F4A7C0111189C019
:101150008C159D05AE05BF05CCF560910902709117
:101160000A0280910B0290910C02653F51E07507D5
:101170008105910508F03BC16F5F7F4F8F4F9F4FF7
:101180006093090270930A0280930B0290930C0201
:101190002091090230910A0240910B0250910C02F9
:1011A00060E077E883E993E00E944C1620931D02EB
:1011B00030931E0240931F0250932002C092A00160
:1011C000D092A101E092A201F092A3018091A0012E
:1011D0009091A101A091A201B091A301C816D906D6
:1011E000EA06FB06F4F56091090270910A0280910B
:1011F0000B0290910C02623071058105910598F007
:10120000653FA1E07A078105910508F0FBC06150B8
:101210007109810991096093090270930A02809310
:101220000B0290930C022091090230910A02409126
:101230000B0250910C0260E077E883E993E00E9492
:101240004C1620931D0230931E0240931F025093B0
:101250002002C092A001D092A101E092A201F092DE
:10126000A3018091090290910A02A0910B02B09112
:101270000C0289389D40A140B10578F038E8432E32
:101280003DE0532E66246394712C409209025092E3
:101290000A0260920B0270920C02112309F466C0DC
:1012A0008091A0019091A101A091A201B091A30110
:1012B00097018601081B190B2A0B3B0BD901C801AA
:1012C0000297A105B10514F18091070290910802DF
:1012D00001968A3091050CF0A0C09093080280938B
:1012E00007020E94850160939B0170939C0180938B
:1012F0009D0190939E0181E080939A01C092A0018C
:10130000D092A101E092A201F092A3018091A001EC
:101310009091A101A091A201B091A3018C199D0906
:10132000AE09BF090297A105B10504F1809107023A
:1013300090910802019797FD77C0909308028093DF
:1013400007020E94850160939B0170939C0180932A
:101350009D0190939E0181E080939A01C092A0012B
:10136000D092A101E092A201F092A301E0910702C4
:10137000F09108028091C8019091C9018E179F07D2
:1013800009F4B0C0109251021092500210924B0218
:1013900010924A02109245021092440210923F02AB
:1013A00010923E02109239021092380210923302CB
:1013B0001092320210922D0210922C0210922702EB
:1013C00010922602EA30F10508F084C0E651F64F8B
:1013D0000C942D18190A7C0DAA0DDB0DDB0D0C0EDB
:1013E000170E170E170E170E1092780125CE0E94B9
:1013F0001E172EEA37E441E85FE30E94AC170E9413
:10140000EF16BECE0E941E172EEA37E441E85FE3D6
:101410000E947D160E94EF16FECE29E030E0309348
:101420000802209307025DCF109208021092070273
:1014300088CF61E082EC91E00E949E018CEB91E00C
:101440000E94920186EB91E00E94920180EB91E074
:101450000E94920181E08093210182E08093220129
:1014600083E08093230184E08093240185E08093CE
:10147000250186E08093260187E08093270188E09C
:101480008093280161E08FEF91E00E949E0161E06E
:1014900088EF91E00E949E0161E081EF91E00E945F
:1014A0009E0161E08AEE91E00E949E0161E083EE80
:1014B00091E00E949E0161E08CED91E00E949E010E
:1014C00061E085ED91E00E949E0161E08EEC91E08B
:1014D0000E949E0180910702909108029093C90199
:1014E0008093C8018091070290910802873091058E
:1014F00009F48CC50CF0A0C38530910509F492C4A1
:10150000069709F40EC5F0905402F1107FC0809147
:101510002001882309F47AC00E9406010091CA01C3
:101520001091CB012091CC013091CD01601B710B4A
:10153000820B930B00911D0210911E0220911F023D
:1015400030912002061717072807390708F05EC0F8
:101550000091500210915102C0904A02D0904B026B
:10156000A0914402B0914502E0913E02F0913F0209
:1015700060913802709139024091320250913302E9
:1015800020912C0230912D02809126029091270209
:10159000E0905202EE2011F40C948A130F5F1F4F5B
:1015A00010935102009350020FEFC01AD00AD0924C
:1015B0004B02C0924A021196B0934502A093440296
:1015C0003196F0933F02E0933E026F5F7F4F70933E
:1015D0003902609338024F5F5F4F5093330240935C
:1015E00032022F5F3F4F30932D0220932C02019641
:1015F00090932702809326020E9406016093CA01FD
:101600007093CB018093CC019093CD0180915302D4
:101610008F1549F06F2D86E490E00E944F02809173
:101620005402809353028091500290915102209174
:101630005202222311F40C94B61320912101281791
:10164000190671F40E94060160934C0270934D02DA
:1016500080934E0290934F021092510210925002CA
:101660002091220180914A0290914B02281719067D
:1016700071F40E94060160934602709347028093C2
:1016800048029093490210924B0210924A02209114
:10169000230180914402909145022817190671F4A4
:1016A0000E940601609340027093410280934202BF
:1016B000909343021092450210924402209124011B
:1016C00080913E0290913F022817190671F40E9402
:1016D000060160933A0270933B0280933C02909320
:1016E0003D0210923F0210923E022091250180910E
:1016F0003802909139022817190671F40E940601E8
:1017000060933402709335028093360290933702CF
:1017100010923902109238022091260180913202F3
:10172000909133022817190671F40E940601609304
:101730002E0270932F028093300290933102109208
:101740003302109232022091270180912C02909155
:101750002D022817190671F40E94060160932802D1
:101760007093290280932A0290932B0210922D02EB
:1017700010922C022091280180912602909127023C
:101780002817190671F40E940601609322027093D3
:101790002302809324029093250210922702109234
:1017A00026029091210280912001992309F43BC5E2
:1017B000882309F41AC580911D0290911E02A09100
:1017C0001F02B0912002B695A795979587958093B3
:1017D000190290931A02A0931B02B0931C020E945C
:1017E0000601C0901902D0901A02E0901B02F090FE
:1017F0001C0220914C0230914D0240914E025091BA
:101800004F022B013C01421A530A640A750AA09147
:101810002101B0E0A70196010E943916461657062D
:101820006806790608F0EAC481E0809314020E94F9
:101830000601009146021091470220914802309122
:1018400049022B013C01401A510A620A730AA09115
:101850002201B0E0A70196010E94391646165706EC
:101860006806790608F0CDC481E0809313020E94D7
:1018700006010091400210914102209142023091F4
:1018800043022B013C01401A510A620A730AA091DB
:101890002301B0E0A70196010E94391646165706AB
:1018A0006806790608F0B0C481E0809312020E94B5
:1018B000060100913A0210913B0220913C023091C6
:1018C0003D022B013C01401A510A620A730AA091A1
:1018D0002401B0E0A70196010E943916461657066A
:1018E0006806790608F093C481E0809311020E9493
:1018F0000601009134021091350220913602309198
:1019000037022B013C01401A510A620A730AA09166
:101910002501B0E0A70196010E9439164616570628
:101920006806790608F076C481E0809310020E9470
:10193000060100912E0210912F0220913002309169
:1019400031022B013C01401A510A620A730AA0912C
:101950002601B0E0A70196010E94391646165706E7
:101960006806790608F059C481E080930F020E944E
:101970000601009128021091290220912A0230913B
:101980002B022B013C01401A510A620A730AA091F2
:101990002701B0E0A70196010E94391646165706A6
:1019A0006806790608F03CC481E080930E020E942C
:1019B000060100912202109123022091240230910D
:1019C00025022B013C01401A510A620A730AA091B8
:1019D0002801B0E0A70196010E9439164616570665
:1019E0006806790608F00EC581E080930D028091AB
:1019F00007029091080205970CF074C01091140230
:101A00008091050290910602911130C5181741F09E
:101A100061E061278FEF91E00E949E011093050223
:101A2000109113028091FE01811741F061E061275E
:101A300088EF91E00E949E011093FE011091120226
:101A40008091F701811741F061E0612781EF91E01A
:101A50000E949E011093F701109111028091F001F4
:101A6000811741F061E061278AEE91E00E949E01BA
:101A70001093F001109110028091E901811741F05B
:101A800061E0612783EE91E00E949E011093E901DD
:101A900010910F028091E201811741F061E061270E
:101AA0008CED91E00E949E011093E20110910E02D4
:101AB0008091DB01811741F061E0612785ED91E0C4
:101AC0000E949E011093DB0110910D028091D401C0
:101AD000811741F061E061278EEC91E00E949E0148
:101AE0001093D40180E090E0892B11F40C9404054C
:101AF0000E9400000C94010582EC91E00E9492018A
:101B000061E08CEB91E00E949E0186EB91E00E94E7
:101B1000920180EB91E00E9492018091200181115D
:101B200017C082E08093210184E08093220186E047
:101B30008093230188E0809324018AE0809325012B
:101B40008CE0809326018EE08093270180E198CC81
:101B500081E0E8CF82EC91E00E9492018CEB91E071
:101B60000E94920161E086EB91E00E949E0180EB71
:101B700091E00E94920180912001811117C084E0C0
:101B80008093210188E0809322018CE080932301DF
:101B900080E18093240184E18093250188E1809392
:101BA00026018CE18093270180E26ACC81E080935A
:101BB000210184E0E8CF82EC91E00E9492018CEB5D
:101BC00091E00E94920186EB91E00E94920161E017
:101BD00080EB91E00E949E0180912001811117C04D
:101BE00088E08093210180E18093220188E1809345
:101BF000230180E28093240188E28093250180E321
:101C00008093260188E38093270180E439CC81E02A
:101C10008093210188E0E8CF47E050E05093AF0186
:101C20004093AE011092AD011092AC012BCC1092FA
:101C3000AF011092AE01F6CF8830910509F445C28C
:101C4000099709F060CC81E0809354020E948501DD
:101C50000091A8011091A9012091AA013091AB0136
:101C6000601B710B820B930B693C7105810591051B
:101C700008F43CC60E94AC15A50194010E941A16F6
:101C800063337105810591050CF473C261E082EC48
:101C900091E00E949E010E94AC15A50194010E9452
:101CA0001A1663337105810591050CF467C261E072
:101CB0008CEB91E00E949E010E94AC15A50194015D
:101CC0000E941A1663337105810591050CF45BC2FD
:101CD00061E086EB91E00E949E010E94AC15A50197
:101CE00094010E941A1663337105810591050CF465
:101CF0004FC261E080EB91E00E949E010E94AC1512
:101D0000A50194010E941A1663337105810591059E
:101D10000CF443C261E08FEF91E00E949E010E94AB
:101D2000AC15A50194010E941A1663337105810553
:101D300091050CF437C261E088EF91E00E949E01AA
:101D40000E94AC15A50194010E941A166333710517
:101D5000810591050CF42BC261E081EF91E00E94B6
:101D60009E010E94AC15A50194010E941A166333CE
:101D70007105810591050CF41FC261E08AEE91E0C6
:101D80000E949E010E94AC15A50194010E941A16A2
:101D900063337105810591050CF413C261E083EE94
:101DA00091E00E949E010E94AC15A50194010E9441
:101DB0001A1663337105810591050CF407C261E0C1
:101DC0008CED91E00E949E010E94AC15A50194014A
:101DD0000E941A1663337105810591050CF4FBC14D
:101DE00061E085ED91E00E949E010E94AC15A50185
:101DF00094010E941A1663337105810591050CF454
:101E0000EFC161E08EEC91E00E949E0181E090E0E4
:101E10002091AC013091AD01232B09F451C190E028
:101E200080E04EC161E082EC91E00E949E0161E0A1
:101E30008CEB91E00E949E0186EB91E00E94920162
:101E400080EB91E00E94920181E0809354020E9415
:101E500085010091A8011091A9012091AA0130915A
:101E6000AB01601B710B820B930B6932710581050D
:101E7000910508F43BC50091AE011091AF01083007
:101E8000110598F4F801E75BF04F6091AC010C94F8
:101E90002D18510F7C0F7F0F820F850F880F8B0F2E
:101EA0008E0F8FEF91E00E949E0101501109109357
:101EB000AF010093AE0117FF14C081E090E02091C4
:101EC000AC013091AD01232B11F090E080E09093B4
:101ED000AD018093AC0187E090E09093AF018093D7
:101EE000AE010E9485016093A8017093A9018093BF
:101EF000AA019093AB0107CB88EF91E0D4CF81EF9B
:101F000091E0D1CF8AEE91E0CECF83EE91E0CBCFBE
:101F10008CED91E0C8CF85ED91E0C5CF8EEC91E0DE
:101F2000C2CF82EC91E00E9492018CEB91E00E9482
:101F3000920161E086EB91E00E949E0161E080EBFE
:101F400091E00E949E0181E0809354020E948501ED
:101F50000091A8011091A9012091AA013091AB0133
:101F6000601B710B820B930B693271058105910522
:101F700008F4BCC40091AE011091AF010830110506
:101F800098F4F801E853F04F6091AC010C942D18CF
:101F9000D00FF10FF40FF70FFA0FFD0F0010031021
:101FA0008FEF91E00E949E010F5F1F4F1093AF01D2
:101FB0000093AE01083011050CF493CF81E090E05E
:101FC0002091AC013091AD01232B11F090E080E025
:101FD0009093AD018093AC011092AF011092AE01CD
:101FE00080CF88EF91E0DECF81EF91E0DBCF8AEE0A
:101FF00091E0D8CF83EE91E0D5CF8CED91E0D2CFB8
:1020000085ED91E0CFCF8EEC91E0CCCF82EC91E0EA
:102010000E9492018CEB91E00E94920186EB91E08C
:102020000E94920180EB91E00E94920181E08093F6
:1020300054020E9485010091A8011091A9012091EC
:10204000AA013091AB01601B710B820B930B6D32B7
:1020500071408105910508F449C4E090AC01F0900D
:10206000AD0111E0E114F10409F010E0612F8FEFF0
:1020700091E00E949E016E2D88EF91E00E949E01EA
:10208000612F81EF91E00E949E016E2D8AEE91E01A
:102090000E949E01612F83EE91E00E949E016E2DB1
:1020A0008CED91E00E949E01612F85ED91E00E94F0
:1020B0009E016E2D8EEC91E00E949E01812F90E09A
:1020C0009093AD018093AC010CCF61E082EC91E084
:1020D0000E949E0161E08CEB91E00E949E0161E014
:1020E00086EB91E00E949E0161E080EB91E00E940E
:1020F0009E0181E0809354020E9485010091A80115
:102100001091A9012091AA013091AB01601B710BC4
:10211000820B930B6D3271408105910508F4E6C383
:10212000E090AC01F090AD0111E0E114F10409F090
:1021300010E0612F8FEF91E00E949E01612F88EFE8
:1021400091E00E949E01612F81EF91E00E949E012B
:10215000612F8AEE91E00E949E016E2D83EE91E048
:102160000E949E016E2D8CED91E00E949E016E2DCD
:102170009CCF82EC91E00E9492018DCD8CEB91E09E
:102180000E94920199CD86EB91E00E949201A5CD2B
:1021900080EB91E00E949201B1CD8FEF91E00E941F
:1021A0009201BDCD88EF91E00E949201C9CD81EFEF
:1021B00091E00E949201D5CD8AEE91E00E949201B9
:1021C000E1CD83EE91E00E949201EDCD8CED91E0A6
:1021D0000E949201F9CD85ED91E00E94920105CE19
:1021E0008EEC91E00E94920111CE809115029091A7
:1021F0001602A0911702B0911802E5CA10921402BB
:1022000016CB1092130233CB1092120250CB1092C5
:1022100011026DCB109210028ACB10920F02A7CB45
:1022200010920E02C4CB882309F4EFC080910902FA
:1022300090910A02A0910B02B0910C02853F01E03F
:102240009007A105B105A8F0813C9D45A105B10508
:1022500008F0EAC060911D0270911E0280911F0279
:10226000909120022AE030E040E050E00E944C16BD
:10227000DFC088E99AE3A0E0B0E080931902909370
:102280001A02A0931B02B0931C020E940601C09088
:102290001902D0901A02E0901B02F0901C020091EB
:1022A0004C0210914D0220914E0230914F02601B62
:1022B000710B820B930B6C157D058E059F0508F045
:1022C000C0C081E0809314020E9406010091460282
:1022D000109147022091480230914902601B710B16
:1022E000820B930B6C157D058E059F0508F0ACC025
:1022F00081E0809313020E94060100914002109138
:1023000041022091420230914302601B710B820B0B
:10231000930B6C157D058E059F0508F098C081E034
:10232000809312020E94060100913A0210913B0232
:1023300020913C0230913D02601B710B820B930B8C
:102340006C157D058E059F0508F084C081E08093A3
:1023500011020E9406010091340210913502209171
:10236000360230913702601B710B820B930B6C1598
:102370007D058E059F0508F070C081E080931002F6
:102380000E94060100912E0210912F02209130022E
:1023900030913102601B710B820B930B6C157D0524
:1023A0008E059F0508F05CC081E080930F020E94BB
:1023B0000601009128021091290220912A023091F1
:1023C0002B02601B710B820B930B6C157D058E0528
:1023D0009F0508F048C081E080930E020E9406012C
:1023E00000912202109123022091240230912502B3
:1023F000601B710B820B930B6C157D058E059F0581
:1024000008F4F2CA10920D02F2CA6091150270919E
:10241000160280911702909118026136A9E07A079E
:102420008105910508F01ECF2AEF30E040E050E032
:102430002093190230931A0240931B0250931C02FE
:1024400024CF1092140240CF1092130254CF109256
:10245000120268CF109211027CCF1092100290CF1E
:1024600010920F02A4CF10920E02B8CF181709F4E1
:1024700039CB112309F4F3C00E94AC158B019C01E8
:102480006091210170E08AE590E00E9419186B01CB
:10249000770FEE08FF08C901B801A50194010E9459
:1024A0001A166C157D058E059F0524F48FEF91E0BB
:1024B0000E9492010E94AC158B019C016091220147
:1024C00070E080EA90E00E9419186B01770FEE0827
:1024D000FF08C901B801A50194010E941A166C15E4
:1024E0007D058E059F0524F488EF91E00E949201FE
:1024F0000E94AC158B019C016091230170E0C10129
:102500000E9419186B01770FEE08FF08C901B80186
:10251000A50194010E941A166C157D058E059F0574
:1025200024F481EF91E00E9492010E94AC158B018E
:102530009C016091240170E080EF90E00E941918E6
:102540006B01770FEE08FF08C901B801A5019401DE
:102550000E941A166C157D058E059F0524F48AEEDF
:1025600091E00E9492010E94AC158B019C01609148
:10257000250170E08AEF90E00E9419186B01770F37
:10258000EE08FF08C901B801A50194010E941A16BE
:102590006C157D058E059F0524F483EE91E00E9465
:1025A00092010E94AC158B019C016091260170E0A4
:1025B00080EF90E00E9419186B01770FEE08FF087A
:1025C000C901B801A50194010E941A166C157D0578
:1025D0008E059F0524F48CED91E00E9492010E94EB
:1025E000AC158B019C016091270170E0C1010E9434
:1025F00019186B01770FEE08FF08C901B801A50192
:1026000094010E941A166C157D058E059F0524F411
:1026100085ED91E00E9492010E94AC158B019C0116
:102620006091280170E080EA90E00E9419186B0127
:10263000770FEE08FF08C901B801A50194010E94B7
:102640001A166C157D058E059F0524F48EEC91E01D
:102650000E949201809114028093050243CA61E0B6
:102660008FEF91E00E949E0161E088EF91E00E946F
:102670009E0161E081EF91E00E949E0161E08AEE9F
:1026800091E00E949E0161E083EE91E00E949E0134
:1026900061E08CED91E00E949E0161E085ED91E0AA
:1026A0000E949E0161E08EEC91E00E949E01D2CFDB
:1026B00001501109109351020093500201E0C01A19
:1026C000D108D0924B02C0924A021197B0934502B2
:1026D000A09344023197F0933F02E0933E02615091
:1026E0007109709339026093380241505109509337
:1026F0003302409332022150310930932D0220934E
:102700002C0201970C945B0510929A0110927F01A4
:102710000C94720801501109109351020093500259
:1027200011E0C11AD108D0924B02C0924A0211970F
:10273000B0934502A09344023197F0933F02E09397
:102740003E02615071097093390260933802415022
:102750005109509333024093320221503109309392
:102760002D0220932C0201970C94F80A97FF12C0B7
:102770000E94060160934C0270934D0280934E02BA
:1027800090934F02809121018150990B90935102B7
:102790008093500280914A0290914B0297FF12C0A1
:1027A0000E9406016093460270934702809348029C
:1027B00090934902809122018150990B90934B0292
:1027C00080934A02809144029091450297FF12C083
:1027D0000E9406016093400270934102809342027E
:1027E00090934302809123018150990B909345026D
:1027F0008093440280913E0290913F0297FF12C065
:102800000E94060160933A0270933B0280933C025F
:1028100090933D02809124018150990B90933F0247
:1028200080933E02809138029091390297FF12C046
:102830000E94060160933402709335028093360241
:1028400090933702809125018150990B9093390222
:1028500080933802809132029091330297FF12C028
:102860000E94060160932E0270932F028093300223
:1028700090933102809126018150990B90933302FD
:102880008093320280912C0290912D0297FF12C00A
:102890000E940601609328027093290280932A0205
:1028A00090932B02809127018150990B90932D02D8
:1028B00080932C02809126029091270297FD02C0FE
:1028C0000C94D10B0E9406016093220270932302A4
:1028D0008093240290932502809128018150990BC6
:1028E00090932702809326020C94D10BF09054020F
:1028F0000C94060BCF93DF9382E00E948D0080E062
:102900000E948D00ECE9F0E0E491F0E0EE0FFF1F93
:10291000E458FF4FA591B491B0935B01A0935A0185
:10292000E0EBF0E0449140935E01EAE9F0E0E491ED
:10293000F0E0EE0FFF1FE458FF4FC591D491D09304
:102940005D01C0935C01EEEAF0E0E491E0935F0189
:102950001092610110926201109263011092640161
:102960002BE33FE1C9010197F1F79C91842F892363
:1029700091E009F490E08881E82309F09260909357
:1029800060018AE591E090934B0180934A0180E1D8
:1029900092E09093190180931801809169008C7FD7
:1029A000816080936900E89A81E08093650168E026
:1029B0008FEF91E00E94AA0169E088EF91E00E9408
:1029C000AA016AE081EF91E00E94AA016BE08AEE21
:1029D00091E00E94AA016CE083EE91E00E94AA01BE
:1029E0006DE08CED91E00E94AA0166E085ED91E03A
:1029F0000E94AA0167E08EEC91E00E94AA0161E1C9
:102A000082EC91E00E94AA0160E18CEB91E00E94CF
:102A1000AA0162E186EB91E00E94AA0163E180EBEA
:102A200091E00E94AA0163E084E991E00E94AA017A
:102A300062E084E591E00E94AA0160E08EE491E00A
:102A4000DF91CF910C94AA018EE491E00E943F02A5
:102A500084E591E00E943F0284E991E00E943F02F8
:102A600080EB91E00E943F0286EB91E00E943F02E2
:102A70008CEB91E00E943F0282EC91E00E943F02C9
:102A80008EEC91E00E943F0285ED91E00E943F02B2
:102A90008CED91E00E943F0283EE91E00E943F02A4
:102AA0008AEE91E00E943F0281EF91E00E943F0296
:102AB00088EF91E00E943F028FEF91E00C943F027B
:102AC0008F929F92AF92BF92CF92DF92EF92FF923E
:102AD000CF93DF93EC01688179818A819B816115B5
:102AE00071058105910521F464E279ED8BE597E0AC
:102AF0002DE133EF41E050E00E941A1649015A01DE
:102B00009B01AC01A7EAB1E40E9439166B017C017C
:102B1000ACEEB4EFA50194010E944716C60ED71E75
:102B2000E81EF91EF7FE06C081E0C81AD108E108C8
:102B300080E8F80AC882D982EA82FB82C701B6011E
:102B40009F77DF91CF91FF90EF90DF90CF90BF9074
:102B5000AF909F908F9008958F929F92AF92BF9267
:102B6000CF92DF92EF92FF926091290170912A013A
:102B700080912B0190912C016115710581059105C2
:102B800021F464E279ED8BE597E02DE133EF41E04C
:102B900050E00E941A1649015A019B01AC01A7EAB4
:102BA000B1E40E9439166B017C01ACEEB4EFA501D3
:102BB00094010E944716C60ED71EE81EF91EF7FEA6
:102BC00006C081E0C81AD108E10880E8F80AC0927E
:102BD0002901D0922A01E0922B01F0922C01C70129
:102BE000B6019F77FF90EF90DF90CF90BF90AF90AE
:102BF0009F908F9008956093290170932A0180938C
:102C00002B0190932C010895F999FECF92BD81BDBF
:102C1000F89A992780B50895262FF999FECF1FBA03
:102C200092BD81BD20BD0FB6F894FA9AF99A0FBEF5
:102C300001960895052E97FB1EF400940E9431160C
:102C400057FD07D00E944C1607FC03D04EF40C949D
:102C5000311650954095309521953F4F4F4F5F4F1E
:102C6000089590958095709561957F4F8F4F9F4FF8
:102C700008950E946E16A59F900DB49F900DA49F7D
:102C8000800D911D11240895B7FF0C9439160E94F0
:102C90003916821B930B0895A1E21A2EAA1BBB1BA7
:102CA000FD010DC0AA1FBB1FEE1FFF1FA217B30718
:102CB000E407F50720F0A21BB30BE40BF50B661F2E
:102CC000771F881F991F1A9469F7609570958095F2
:102CD00090959B01AC01BD01CF010895A29FB00169
:102CE000B39FC001A39F700D811D1124911DB29F40
:102CF000700D811D1124911D08950E9491160C9450
:102D000072170E946B1758F00E94641740F029F464
:102D10005F3F29F00C945B1751110C94A6170C948B
:102D200061170E94831768F39923B1F3552391F338
:102D3000951B550BBB27AA2762177307840738F02A
:102D40009F5F5F4F220F331F441FAA1FA9F335D087
:102D50000E2E3AF0E0E832D091505040E695001C3B
:102D6000CAF72BD0FE2F29D0660F771F881FBB1FF5
:102D7000261737074807AB07B0E809F0BB0B802DD3
:102D8000BF01FF2793585F4F3AF09E3F510578F0FF
:102D90000C945B170C94A6175F3FE4F3983ED4F3B2
:102DA000869577956795B795F7959F5FC9F7880FD3
:102DB000911D9695879597F90895E1E0660F771F25
:102DC000881FBB1F621773078407BA0720F0621BB6
:102DD000730B840BBA0BEE1F88F7E09508950E94E1
:102DE0008B1788F09F5798F0B92F9927B751B0F0FB
:102DF000E1F0660F771F881F991F1AF0BA95C9F77F
:102E000014C0B13091F00E94A517B1E008950C9460
:102E1000A517672F782F8827B85F39F0B93FCCF313
:102E2000869577956795B395D9F73EF490958095FB
:102E3000709561957F4F8F4F9F4F0895E89409C01B
:102E400097FB3EF490958095709561957F4F8F4FDD
:102E50009F4F9923A9F0F92F96E9BB279395F695F3
:102E6000879577956795B795F111F8CFFAF4BB0F71
:102E700011F460FF1BC06F5F7F4F8F4F9F4F16C0D5
:102E8000882311F096E911C0772321F09EE8872F5F
:102E9000762F05C0662371F096E8862F70E060E01B
:102EA0002AF09A95660F771F881FDAF7880F969594
:102EB000879597F9089597F99F6780E870E060E03B
:102EC00008959FEF80EC089500240A9416161706C3
:102ED00018060906089500240A941216130614060B
:102EE00005060895092E0394000C11F4882352F06E
:102EF000BB0F40F4BF2B11F460FF04C06F5F7F4F26
:102F00008F4F9F4F089557FD9058440F551F59F00C
:102F10005F3F71F04795880F97FB991F61F09F3FC6
:102F200079F087950895121613061406551FF2CFEF
:102F30004695F1DF08C0161617061806991FF1CF3F
:102F400086957105610508940895E894BB27662766
:102F50007727CB0197F908950E94BF170C94721739
:102F60000E94641738F00E946B1720F0952311F02F
:102F70000C945B170C94611711240C94A6170E94F3
:102F8000831770F3959FC1F3950F50E0551F629F13
:102F9000F001729FBB27F00DB11D639FAA27F00DB2
:102FA000B11DAA1F649F6627B00DA11D661F829FD9
:102FB0002227B00DA11D621F739FB00DA11D621FBE
:102FC000839FA00D611D221F749F3327A00D611DDB
:102FD000231F849F600D211D822F762F6A2F1124BD
:102FE0009F5750409AF0F1F088234AF0EE0FFF1FF0
:102FF000BB1F661F771F881F91505040A9F79E3F47
:10300000510580F00C945B170C94A6175F3FE4F316
:10301000983ED4F3869577956795B795F795E7959C
:103020009F5FC1F7FE2B880F911D9695879597F9A5
:10303000089597FB072E16F4009407D077FD09D06A
:103040000E94331807FC05D03EF4909581959F4F60
:103050000895709561957F4F0895EE0FFF1F0590BD
:10306000F491E02D0994AA1BBB1B51E107C0AA1FD4
:10307000BB1FA617B70710F0A61BB70B881F991F19
:103080005A95A9F780959095BC01CD01089510E05F
:10309000C2E6D0E004C0FE010E942D182196C3367E
:1030A000D107C9F7F894FFCFB900B900B900B9004A
:1030B000B900B900B900B900B900B900B900B90048
:1030C00091019101B900B90001010203040506074D
:1030D0000801000000110010001200130008000990
:0E30E000000A000B000C000D000600070000A7
:107E0000112484B714BE81FFF0D085E080938100F7
:107E100082E08093C00088E18093C10086E0809377
:107E2000C20080E18093C4008EE0C9D0259A86E02C
:107E300020E33CEF91E0309385002093840096BBD3
:107E4000B09BFECF1D9AA8958150A9F7CC24DD24C4
:107E500088248394B5E0AB2EA1E19A2EF3E0BF2EE7
:107E6000A2D0813461F49FD0082FAFD0023811F036
:107E7000013811F484E001C083E08DD089C08234E0
:107E800011F484E103C0853419F485E0A6D080C0E4
:107E9000853579F488D0E82EFF2485D0082F10E0AE
:107EA000102F00270E291F29000F111F8ED06801E7
:107EB0006FC0863521F484E090D080E0DECF843638
:107EC00009F040C070D06FD0082F6DD080E0C81688
:107ED00080E7D80618F4F601B7BEE895C0E0D1E017
:107EE00062D089930C17E1F7F0E0CF16F0E7DF06D8
:107EF00018F0F601B7BEE89568D007B600FCFDCFD4
:107F0000A601A0E0B1E02C9130E011968C91119780
:107F100090E0982F8827822B932B1296FA010C0160
:107F200087BEE89511244E5F5F4FF1E0A038BF0790
:107F300051F7F601A7BEE89507B600FCFDCF97BE46
:107F4000E89526C08437B1F42ED02DD0F82E2BD052
:107F50003CD0F601EF2C8F010F5F1F4F84911BD097
:107F6000EA94F801C1F70894C11CD11CFA94CF0C13
:107F7000D11C0EC0853739F428D08EE10CD085E9AC
:107F80000AD08FE07ACF813511F488E018D01DD067
:107F900080E101D065CF982F8091C00085FFFCCF94
:107FA0009093C60008958091C00087FFFCCF809118
:107FB000C00084FD01C0A8958091C6000895E0E648
:107FC000F0E098E1908380830895EDDF803219F02E
:107FD00088E0F5DFFFCF84E1DECF1F93182FE3DFCA
:107FE0001150E9F7F2DF1F91089580E0E8DFEE27F6
:047FF000FF270994CA
:027FFE00040479
:00000001FF
